:1000000000300020F12E0000213800002D380000C3
:100010002D3800002D3800002D3800002D3800004C
:100020002D3800002D3800002D3800002D3800003C
:100030002D3800002D3800002D3800002D3800002C
:100040002D3800002D3800002D3800002D3800001C
:100050002D3800002D3800002D3800002D3800000C
:10006000E14300002D3800002D3800002D3800003D
:100070002D3800002D3800002D3800002D380000EC
:100080002D3800002D3800002D380000F1560000FA
:100090002D3800002D3800002D3800002D380000CC
:1000A0002D3800002D3800002D3800002D380000BC
:1000B0002D3800002D3800002D380000ED3C0000E8
:10040000FFFFFFFFFFFFFFFFFFFFFFFF7EFFFFFF7D
:1004100010B5064C2378002B07D1054B002B02D0DA
:10042000044800E000BF0123237010BDB0F0FF1F9F
:1004300000000000ACA0000008B5084B002B03D062
:100440000748084900E000BF07480368002B03D0B5
:10045000064B002B00D0984708BDC04600000000A6
:10046000ACA00000B4F0FF1FACF0FF1F00000000C4
:10047000164B002B00D1144B9D46402292029A1A33
:10048000924600218B460F461348144A121A05F073
:10049000A5F90F4B002B00D098470E4B002B00D036
:1004A00098470020002104000D000D48002802D0CC
:1004B0000C4800E000BF05F06BF92000290002F0B5
:1004C000E7FA05F04FF9C0460000080000300020B0
:1004D0000000000000000000B0F0FF1F10F5FF1F3B
:1004E0000000000000000000F8B55F465646444694
:1004F0004D46F0B40C034D00CE0F610A440F21436A
:10050000C400180380465800400D8246D80F844628
:100510004046400A530F0343D0006D0D371C8346FD
:100520005246664500D1A4E0AF1A002F00DC09E175
:10053000002A3BD1184300D0EAE0630700D187E0EE
:100540000F232340042B00D182E0221DA242A441AC
:100550006442802309191B040B40371C141C002B18
:1005600000D17CE0CE4B01359D4200D105E1CD4B61
:10057000E40819404807490204430B0B00200021FE
:100580001B031A0B0B0D6D051B0513436A08C64DA3
:10059000FF071D4015436D006D08291C3943201CC1
:1005A0003CBC90469946A246AB46F8BDBC48854245
:1005B000C3D0802000040343382F00DDF0E01F2F5C
:1005C00000DD24E12020C01B1A1C814682405846D1
:1005D000F8400243944658464A469040421E904195
:1005E000FB40624602431F1CA21A9442A44164428B
:1005F000C91B091B141C0B029FD549024F0A002F6F
:1006000000D1C8E0381C01F04DFD021C083A1F2A39
:1006100000DDB5E02821091A201C9740C840074397
:100620009440954200DDB2E0551B691C1F2900DD96
:10063000DCE01F22551B3B1C221CAB40CA40AC40D7
:10064000651EAC411343CF401C43391C002574E7A1
:1006500080231B040B40371C002B00D082E7904BFB
:100660004807E4080443C9089D4248D009030B0B1E
:1006700084E7AA1A9446002A00DC98E05046002835
:1006800052D08748854200D157E7802000040343B9
:100690006246382A00DDFCE01F2A00DD4AE1202204
:1006A0006046101A1A1C824082469146584662469D
:1006B000D0404A4602439046584652469040421E19
:1006C0009041424602436046C3401219A242A441EF
:1006D000644259180919141C080200D42DE7704B04
:1006E00001359D4200D122E16E4B60081940012383
:1006F00023401C1C0443CB071C4349081DE7231C53
:100700000B433AD080231B030B431B031B0B35E722
:10071000013F002F65D15846221A9442A4416442F9
:10072000C91A091B141C66E75846184300D104E790
:100730000122524294446046002800D0C5E0584649
:100740000219C3E7002F73D1681C4005400D012832
:1007500000DCDEE05A46A21A9442BF41C81A7F422A
:10076000C71B380200D489E05A46141BA3459241A6
:10077000591A52428F1A664641E700230024FDE6CB
:10078000271C283887400024954200DC4CE7454967
:10079000AD1A3940D1E6201C01F084FC203034E74A
:1007A0005A461A43531E9A41D2B200271CE7002A28
:1007B00000D0DCE0681C4205520D012A00DC8DE00F
:1007C000374DA84200D1F3E05D462A19A242A44168
:1007D000644259180919CC07520814434908051CEA
:1007E000ABE62F48854200D0E6E6A6E62B1C1F3B71
:1007F0003A1CDA40131C20296CD03F22551BAF4015
:100800003C43601E84411C430021002595E6381CB2
:1008100020381A1CC240101C202F5DD04022D71B4C
:10082000BB405A461A43531E9A4102430027DBE657
:10083000002D3BD01A4DAA4500D193E080252D0410
:100840007F422943382F00DDACE01F2F00DD29E176
:100850002025ED1B081C261CA840FE40AC4006438A
:10086000651EAC413443F9405D462C1BA3459241C3
:100870005B1A5242991A55466646BCE6131C3B4326
:10088000141C002B00D0BAE600270021002500240C
:10089000E5E65A461A43531E9A41D2B2002314E7A2
:1008A000FF070000FFFF7FFFFFFF0F800D1C2543A8
:1008B00058D0FF43002F51D1041BA3459241591A30
:1008C0005242891A5546664695E69648854200D0BA
:1008D000DEE632E6002793E70023A2E7081C204368
:1008E000002D00D0C4E0002800D1F7E0584618439E
:1008F00000D122E658460219A242A4416442591886
:100900000919141C0A0200D417E6874B0125194067
:1009100013E6081C2043002D39D1002871D1594617
:10092000194303D0191C5C46664606E600270021E1
:10093000002494E6604620381A1CC2406046914666
:10094000202800D1ACE04022121A93405A461A43A4
:10095000531E9A414B461A430023B6E6714DAA45F1
:1009600000D06FE7191C5C4655466646E5E5002D4C
:1009700022D10D1C254377D0D543002D71D15C4485
:100980005C4592415918524289185546A4E6002800
:100990004DD15946194300D194E0191C5C46664676
:1009A000604DCAE50C43611E8C41E4B200215BE757
:1009B000051C0021002452E65A4DAA4554D0554248
:1009C000802210040143382D00DD81E01F2D00DD61
:1009D00092E02022501B0A1C84468240201CE840E2
:1009E0000243904662469440601E8441424614434E
:1009F000E9405C445C459241CB18524299185546F7
:100A00006AE65846184300D197E55846271ABC4273
:100A10009241C81A5242801A020266D55846041BF7
:100A2000A3459241591A5242891A664685E55846AD
:100A3000184333D04807E40804438020C908000362
:100A4000014208D0DD08054205D15946CA085C07B5
:100A50001443291C6646630FC9001943E400314D55
:100A60006BE5304A9245AED1191C5C46554664E5AB
:100A7000002836D05846184310D080254807E4088F
:100A8000C9082D0304432942E5D0D8082842E2D101
:100A90005D46EA085C071443011CDCE7214D4CE588
:100AA000002353E73D1C203D0A1CEA40151C202F63
:100AB00034D04026F71BB9400C43611E8C412C43B7
:100AC0000021D1E680210027C903164D0024C6E588
:100AD0000C43611E8C41E4B200218AE7191C5C467C
:100AE0002BE5191C5C460F4D27E5031C3B4300D149
:100AF0001CE7011C3C1C20E52020404240190A1C38
:100B0000C2409046202D0BD04020451BA9400C43ED
:100B1000611E8C4145462C4300216AE70021CBE74A
:100B20000021F4E7FF070000FFFF7FFFF0B5564606
:100B300044465F464D46F0B41F1C0B031B0B984602
:100B40004B0087B0041C81465B0DC80F161C9A46EB
:100B50000090002B51D06A4B9A4531D080224146FB
:100B600052030A43630FD2001A43664B9046002596
:100B7000E20091469A44002402953B031B0B9B46DE
:100B8000FD0F7B00311C5B0D019560D05C4A9342E8
:100B900054D08021584649030143720FC9001143C4
:100BA000584A8B469B18F1000020009A04436A4083
:100BB00003920F2C00D9ADE0534EA4003459A74640
:100BC000404604436ED10021022508248846894608
:100BD0000295D2E7009C0298C34649460194022838
:100BE00064D0032800D1ABE2012800D038E2019A9A
:100BF000002402400025A14660E0434623434AD03A
:100C00004046002800D1C0E101F04CFA031E272B1A
:100C100000DDB3E128210D1A211C083B4246E940C2
:100C20009A400D1C1543221C9A40A8469146374B0A
:100C300000251B1A9A46002402959EE75A46164341
:100C40000320002EB1D1B34600210220ADE75A4661
:100C500032431BD05B46002B00D18AE1584601F09D
:100C600021FA272800DD7DE12822171A011C321CF9
:100C700008395B46FA408B40171C1F43331C8B40DE
:100C8000BB46191C214B1B1A00208EE70027BB46D0
:100C90000021012089E700200125042480468146A7
:100CA00002956AE703250C24029566E7019C0394EC
:100CB000039D01222A400024114DA146002000215D
:100CC0002403260B0C0D2405114B34432D05234022
:100CD0002B435B005B08D207191C4846114307B041
:100CE0003CBC90469946A246AB46F0BD002280240B
:100CF00024039146024DE1E700240025A146DDE7EB
:100D0000FF07000001FCFFFFD89C00000DFCFFFF67
:100D1000FFFF0F805546ED1A0495D84500D953E1E1
:100D200000D14EE1049C0025013C4E460494474608
:100D3000A946584603020C0E1C430902250C230445
:100D40001B0C0091381C291C019301F05BF90199DF
:100D500083464143381C8A46291C01F097F9330C1D
:100D6000090419438A450CD95B460919013B8C4299
:100D700000D947E18A4500D844E102225242934417
:100D800009195346CB1A181C291C984601F03AF948
:100D9000071C0198291C78438246404601F076F9E9
:100DA00036040B04360C33439A4509D91B197A1EB5
:100DB0009C4200D924E19A4500D821E1023F1B1949
:100DC0005E4632041743380CBB46009E009F5146D6
:100DD0003F0C32045B1A5946BA46120C0F043F0C02
:100DE000904651467A434F434146414356467043ED
:100DF000CF19160CBE19B14202D980277F02C01943
:100E0000310C12043604120C4018B618834200D27A
:100E1000C4E000D1BEE0191A4846861BB145BF4167
:100E20007F42CF1BA74200D113E1291C381C01F0DF
:100E3000E9F8019902904143381C8946291C01F0C8
:100E400025F9330C0904194389450CD9029B09196A
:100E5000013B8C4200D9FFE0894500D8FCE0029FAD
:100E60000919023F02974F46CF1B381C291C0597D2
:100E700001F0C8F8071C0198291C784381460598A1
:100E800001F004F936040904360C0E43B14509D9C2
:100E900036197B1EB44200D9E0E0B14500D8DDE050
:100EA000023F3619029D4946761A290439430B043C
:100EB00057460A0C1B0C40464546584355437B4356
:100EC0007A43EB18070CDB199D4202D980256D028D
:100ED00052191D0C00041B04000C52191B189642D9
:100EE00035D300D1FCE001231943049E994FF51935
:100EF000002D00DCA1E0480709D00F230B40042B94
:100F000005D00B1D8B42894149428B44191C5A461E
:100F1000D20107D5904B5C46049E80271C40FF0001
:100F2000A346F5198D4B9D427ADD039C0122224098
:100F300000248B4DA146C1E6802424034746274266
:100F40004CD13C432403240B009A854DB6E6361958
:100F5000481EB4425ED9011C9642C4D1009E9E42F6
:100F6000C1D1C2E7031C283B311C99408B460021AC
:100F700088E6301C01F096F8203072E6283B211CF0
:100F8000994000228846914651E6201C01F08AF8DB
:100F900020303BE60021B14500D33DE7009F5A4693
:100FA000B944B945BF417F423F19FB18013A9C4201
:100FB0001ED2984200D97EE000D1B5E0191A9346BE
:100FC0002AE7894500D8ADE64846464642467708B6
:100FD000D3074608C0071E438146AAE6584620426A
:100FE00012D1044324032A1C240B89465C4D65E678
:100FF000A342E3D1009F4F45DBD9211A93460BE76B
:10100000171CDDE69B46BCE63C432403240B009AF8
:10101000534D53E6B24259D800D18AE0011C62E731
:101020005F46C9087B07039E0B437C026D050122C6
:101030009946240B6D0D324040E64A4B049FDB1B62
:10104000382B10DD039C0122224000240025A146FC
:1010500034E60121494248E7029304E71F1C21E7D7
:10106000019C039441E71F2B40DC3F48049F0C1C6C
:101070003A1858469140DC40904020430A1C511ECB
:101080008A41011C11435A46DA40131C480709D013
:101090000F220A40042A05D00A1D8A42894149428A
:1010A0005B18111C1A0234D5039C01222240002433
:1010B0000125A14602E6009F02214942B9448B4422
:1010C000B945894149420919CB18A4E6009D881EFB
:1010D0006900A942AD416D422C19361900913AE7D9
:1010E000002B00D033E70024009437E71F4A049C0C
:1010F0005D46121BD5402A1C202B1FD01C4E5F467C
:10110000A3199F403B1C19434B1E994111430023D7
:10111000BCE75A07C9080A43039F91465B020122B4
:101120001C0B3A400025C9E54E45C4D89346002122
:1011300072E6009F9F42C9D3011C0FE70023E2E73C
:10114000802424035F463C432403240B019A8946F0
:10115000034DB3E5FF030000FFFFFFFEFE070000A5
:10116000FF07000002FCFFFF1E040000E2FBFFFF80
:101170003E040000F0B5564644465F464D46F0B486
:101180001F1C0B031B0B9A464B0087B0041C8046A8
:101190005B0DC80F161C02938146002B68D0694B6B
:1011A0000299994232D08022534652031A43D20008
:1011B000630F1A439246644AE00089188046029100
:1011C000002400253B031B0B9B467800FB0F321CC1
:1011D000400D039300D175E05A4B984269D08022AC
:1011E000594652030A43730FD2001A43564B934693
:1011F000C018F200002303994E4671401C430F2C87
:1012000000D9A9E0514EA4003459A74653461C43C7
:1012100000D087E00025AA46A84608240225D1E789
:101220004946022D6CD0032D00D117E2012D00D0CC
:1012300058E10D40EDB20024A9460023A04600204D
:10124000002125030A0D1C052D0B1205404B2A43D6
:10125000134023435B004C465B08E207191C4046E1
:10126000114307B03CBC90469946A246AB46F0BD40
:101270005346234350D05346002B00D184E15046BF
:1012800000F010FF031E272B00DD76E128210D1A48
:10129000211C083B5246E9409A400D1C1543221C74
:1012A0009A40AA4690462B4B00241B1A0293002515
:1012B00088E75B461E430323002E9CD1B3460022E1
:1012C000022398E75B46334321D05846002800D1DB
:1012D0004EE100F0E7FE272800DD42E128210F1A49
:1012E000021C311C083A5B46F94093400F1C1F4317
:1012F000331C9340BB461A1C164B181A00237AE77E
:1013000001230B4000249946A0460E4B97E7002787
:10131000BB46002201236EE7002104248A4688464A
:1013200001254FE70C2403254CE700258024A9461E
:101330002403A846034B82E7DA46904603991D1C16
:101340006FE7C046FF07000001FCFFFF189D00008B
:10135000FFFF0F800DFCFFFF029F160C3818049052
:101360004046070C0004000C1204120C031C5343EB
:10137000041C3D1C7443554398463B1C734364193D
:10138000A44644460293230C63449D4204D9029D23
:10139000802464022D1902951D0C039545462C04EA
:1013A0001B04240C1C1905945C46230C051C584393
:1013B0002404240C8446381C604365435F43814603
:1013C000CC44280C6044BB46814502D980277F026B
:1013D000BB442D04070C2D0C000440195546BC4697
:1013E0002F04E3448446280C3D0C2F1C5743B84679
:1013F0002F1C77434243B94647463F0C9144BA46B7
:10140000D14446434A4502D980225202B6184F467B
:101410003A0CB6183A0447463F043F0CB8462F1C16
:1014200067435D434443584365190190380C2D18B8
:101430004244B846AC4204D9019880235B02C018EC
:101440000190039C029F201C6044C0196045A44188
:1014500047466442A4462B043C049946240C4C4461
:10146000A046D8448018C246E24490429241574672
:1014700052429146F219E245BF417F424B46BC467B
:10148000D845BF41D4187F4263461F432D0C7F19B6
:10149000B24292414C45AD4152426D421543019ECC
:1014A0007D19AB19E20D5B02059F134342023A43DB
:1014B0009A46531E9A41C30D101C184364022043E0
:1014C00080465046C0010DD5454601225646049C33
:1014D0006B082A401A43F30701341A437608049430
:1014E0009046B246049E634FF319002B61DD4046DF
:1014F00040070BD00F2244462240042A06D0424621
:101500000432424580414042824490465546ED01B6
:1015100007D5594B5646049F80201E40C000B24656
:101520003B18564A934200DDEAE644465546E20837
:101530006807104301226C025B050A408046240BB9
:101540005B0D91467BE6DA4690461D1C69E68024D9
:101550002403574627421CD13C432403240B484B09
:101560006DE6031C283B311C99408B460022C3E6E4
:10157000301C00F097FD2030ADE6283B211C99403F
:1015800000228A4690468EE6201C00F08BFD20301B
:1015900078E65846204207D1044303992403240BDC
:1015A00089469046364B4AE63C432403240B344B91
:1015B00045E6344B049E9B1B382B06DD01230B4074
:1015C00000249946A046002339E61F2B25DC049C05
:1015D0002D4D46466019524644468640DC408240C6
:1015E0005746301C2243DF40441EA04102433B1CAF
:1015F000540709D00F201040042805D0101D904238
:10160000924152429B18021C1D021AD501230B4025
:1016100000249946A046012311E61C48049C554627
:10162000001BC540281C202B16D0194E5746A21966
:1016300097403A1C43461A43531E9A4102430023E3
:10164000D6E758075B02D2081C0B01230B4010435E
:10165000994680460023F2E50022EBE7802424032C
:1016600050460123044319402403240B8946044BAC
:10167000E5E5C046FF030000FFFFFFFEFE07000098
:10168000FF07000002FCFFFF1E040000E2FBFFFF5B
:101690003E040000F8B55F46564644464D46F0B459
:1016A0000C034D00CF0F610A440F2143C4001803FF
:1016B000DE0F8046B44646465800760A530F334341
:1016C000D600D14A6D0DBA46400DB346904200D1C6
:1016D000F5E06246012672409446674500D1ABE0D2
:1016E0002F1A002F00DC11E100283ED15846184384
:1016F00000D0F1E0600700D197E00F232340042BD6
:1017000000D122E1221DA242A44164428023091992
:101710001B04012750460B400740141C002B00D12E
:1017200079E0B94B01359D4200D10BE1B74BE4089C
:1017300019404807490204430B0B002000211B03FA
:101740001A0B0B0D6D051B0513436A08B04DFF07FF
:101750001D4015436D006D08291C3943201C3CBCFD
:1017600090469946A246AB46F8BDA7488542C1D0EF
:10177000802000040343382F00DDFDE01F2F00DD33
:1017800031E12020C01B1A1C5E468240FE403243DD
:1017900094465A468240101C421E9041FB406246CD
:1017A00002431F1CA21A9442A4416442C91B091B94
:1017B000141C0A029ED549024F0A002F00D1D6E020
:1017C000381C00F06FFC021C083A1F2A00DDC3E041
:1017D0002821231C091A9740CB401F43944095426F
:1017E00000DDC0E0551B691C1F2900DDEAE01F2257
:1017F000551B3B1C221CAB40CA40AC40651EAC4193
:101800001343CF401C43391C002573E780217E4DD4
:101810000027C90300247C4B4807E4080443C90897
:101820009D4250D009030B0B87E780231B0401273F
:1018300052460B40174071E72A1A9446002A00DCF2
:10184000A1E0002854D07048854200D152E78020A2
:10185000000403436046382800DD0EE11F2800DD48
:1018600057E162462020801A1E1C8640B1465E4623
:10187000D6404A4632435E4686409046301C421E61
:101880009041424602436046C3401219A242A4411D
:10189000644259180919141C080200D42AE75A4B4B
:1018A00001359D4200D131E1584B600819400123B8
:1018B00023401C1C0443CB071C4349081AE71E4362
:1018C00000D00AE705E7231C0B433BD080231B0312
:1018D0000B431B031B0B30E7013F002F6DD15E460E
:1018E000A21B9442A4416442C91A091B141C60E75C
:1018F0005846184300D1FDE601267642B4446046BE
:10190000002800D0D0E05E463219BFE7002F00D09B
:1019100080E0681C4005400D012800DCE8E05A46E4
:10192000A21A9442BF41C81A7F42C71B3E0200D48C
:1019300098E05846041BA3459241591A52428F1A07
:10194000E2463AE700230024F7E680231B04012740
:1019500056460B403740E1E6271C283887400024D4
:10196000954200DC3EE72949AD1A3940C2E6201C09
:1019700000F098FB203026E75A461A43531E9A413E
:10198000D2B200270EE7002A00D0DEE0681C460530
:10199000760D012E00DC90E01B4DA84200D1F5E051
:1019A0005E463219A242A441644259180919CC0773
:1019B000520814434908051C9CE61348854200D090
:1019C000D9E697E62B1C1F3B3E1CDE40331C20292A
:1019D0006FD03F22551BAF403C43601E84411C43E7
:1019E0000021002586E6381C20381E1CC640301C0D
:1019F000202F60D04022D71BBB405A461A43531EAB
:101A00009A4102430027CDE6FF070000FFFF7FFF5A
:101A1000FFFF0F80002D37D0B64DA84200D18FE0D8
:101A200080252D047F422943382F00DDA8E01F2F99
:101A300000DD24E12025ED1B0E1CAE40B046261C27
:101A4000FE404246AC401643651EAC413443F9406B
:101A50005A46141BA34592415B1A5242991A051C1F
:101A6000E246A6E6131C3B43141C002B00D0A4E660
:101A70000027002100250024CDE65A461A43531EB4
:101A80009A41D2B2002300E70D1C254358D0FF43F2
:101A9000002F51D15A46141BA3459241591A524264
:101AA000891A051CE24684E69248854200D0D1E6B8
:101AB00020E6002790E700239FE7081C2043002D25
:101AC00000D0C2E0002800D1EFE05846184300D112
:101AD00010E658460219A242A44164425918091955
:101AE000141C0A0200D405E6834B0125194001E6C7
:101AF000081C2043002D38D100286FD159461943C6
:101B000003D0191C5C46E246F4E5002700210024BE
:101B100081E6604620381A1CC2406646101C202E02
:101B200000D1AAE04022921B93405A461A43531E0A
:101B30009A4102430023A8E66E4DA84200D073E705
:101B4000191C5C46051CE246D4E5002D22D10D1C73
:101B5000254376D0D543002D70D15C445C4592413D
:101B6000591852428918051C96E600284CD159464E
:101B7000194300D14AE6191C5C46E2465D4DB9E5C1
:101B80000C43611E8C41E4B2002161E7051C002179
:101B9000002440E6574DA84253D0554280221604F7
:101BA0003143382D7BDC1F2D00DD8CE02022561BBD
:101BB0000A1CB446B240261CEE40324390466246B0
:101BC0009440661EB44142461443E9405C445C457F
:101BD0009241CB1852429918051C5DE658461843AD
:101BE00000D187E55E46A71BBC429241C81A52420B
:101BF000801A060260D55846041BA3459241591A23
:101C00005242891AE24675E55846184333D04807D0
:101C1000E40804438020C9080003014208D0DD081D
:101C2000054205D15946CA085C071443291CE246FF
:101C3000630FC9001943E4002E4D5BE52D4A904225
:101C4000AFD1191C5C46051C54E5002830D058461D
:101C5000184310D080254807E408C9082D03044321
:101C60002942E5D0D8082842E2D15D46EA085C075F
:101C70001443011CDCE71F4D3CE5002355E73D1CE8
:101C8000203D0E1CEE40351C202F2ED04026F71B89
:101C9000B9400C43611E8C412C430021D8E60C4313
:101CA000611E8C41E4B2002190E7191C5C4621E5DD
:101CB000191C5C460F4D1DE5031C3B4300D124E776
:101CC000011C3C1C16E52026764276190A1CF240BF
:101CD0009046202D0BD04026751BA9400C43611E59
:101CE0008C4145462C43002170E70021D1E70021BB
:101CF000F4E7C046FF070000FFFF7FFF70B50B1C35
:101D0000124C09030E0B5900021C490DDD0F002077
:101D1000A14211DD0E4881420FDC802040030643C2
:101D20000C48401A1F280BDD0B4A521AD640321CB1
:101D30005042002D00D1101C70BD084BE818FBE785
:101D4000074BC240C9188E403243F1E7FE03000042
:101D50001D0400003304000013040000FFFFFF7F98
:101D6000EDFBFFFFF8B5041E31D0C70F00D0444291
:101D7000201C00F097F9184D2D1A0A2819DD0B3890
:101D8000844024036D05240B6D0D3A1C00260020B1
:101D900000210B0D2403240B1B0523430F4C2D05A1
:101DA0001C402C4364006408D307211C301C1943D9
:101DB000F8BD061C1536231CB3401E1C0B23181A35
:101DC000C44024036D05240B6D0D3A1CDFE700228F
:101DD000002500240026DAE71E040000FFFF0F8024
:101DE00010B5041E28D000F05DF9154A121A0A2811
:101DF00015DD0B38844024035205240B520D0023BB
:101E0000002000212403181C0B0D240B1B05234369
:101E10000C4C12051C4014436400610810BD031CE7
:101E20001533211C99400B1C0B21081AC4402403B4
:101E30005205240B520DE3E7002200240023DFE7C4
:101E40001E040000FFFF0F8043001B0E5A1C4102BE
:101E5000D2B270B54C0AC50F012A17DDE0229200FC
:101E60006407090B9818002200231E0D221C34055C
:101E70000C431B49400540082140014349004908E3
:101E8000ED070B1C2B43101C191C70BD002B15D12A
:101E9000002C1CD0201C00F005F90A281ADC0B21AC
:101EA000091A231CCB40191C031C15339C400D4BF5
:101EB0000903181A4005090B400DD4E7002C03D084
:101EC0006407090B0848CEE707480021CBE700204C
:101ED0000021C8E7011C0B398C40211C0024E6E7D7
:101EE000FFFF0F8089030000FF070000F0B54B00E3
:101EF0000D03420F5B0D6D0A15435A1C5205CC0FA2
:101F0000C600520D012A27DD394FDA19FE2A1ADCE4
:101F1000002A35DD8001ED00431E98412843760FED
:101F20003043430704D00F230340042B00D0043078
:101F30008021C904014027D00132FF2A1DD083012E
:101F40005B0AD1B201E0FF2100235802C905400A13
:101F5000E40708432043F0BD002B06D1354311D1DF
:101F60000021002043025B0AEFE72E43EBD08020E4
:101F7000ED0080042843FF22D3E7FF210023E4E79C
:101F800017320DDA05200022C008D1B2FF2AE9D1AC
:101F90000028D9D08023DB0303435B025B0AD4E72C
:101FA0008022144912041543C91A1F290DDC124A54
:101FB000371C9B18281C9F4098403B1C5A1E93417D
:101FC0001843CE4030430022ABE70C4F2A1CFF1AC7
:101FD000FA40171C202909D0094A98188540281C66
:101FE0003043461EB041384300229AE70020F7E70D
:101FF00080FCFFFF9E03000082FCFFFF7E030000C9
:10200000A2FCFFFF002934D00123002210B4884233
:102010002CD301242407A14204D2814202D2090117
:102020001B01F8E7E400A14204D2814202D2490038
:102030005B00F8E7884201D3401A1A434C08A042DB
:1020400002D3001B5C0822438C08A04202D3001B71
:102050009C082243CC08A04202D3001BDC08224388
:10206000002803D01B0901D00909E3E7101C10BCAC
:102070007047002801D00020C04307B4024802A1E5
:102080004018029003BDC046190000000029F0D09E
:1020900003B5FFF7B9FF0EBC4243891A1847C04683
:1020A0007047C0461C2101231B04984201D3000C39
:1020B00010391B0A984201D3000A08391B099842BB
:1020C00001D30009043902A2105C40187047C046D1
:1020D00004030202010101010000000000000000F1
:1020E00002B4714649084900095C49008E4402BCAB
:1020F0007047C046002941D010B4041C4C40A4468F
:1021000001230022002900D54942002800D5404281
:1021100088422CD301242407A14204D2814202D256
:1021200009011B01F8E7E400A14204D2814202D276
:1021300049005B00F8E7884201D3401A1A434C0873
:10214000A04202D3001B5C0822438C08A04202D3A9
:10215000001B9C082243CC08A04202D3001BDC08D1
:102160002243002803D01B0901D00909E3E7101C12
:102170006446002C00D5404210BC7047002806D0B1
:1021800003DB0020C043400801E08020000607B4C4
:10219000024802A14018029003BDC04605FFFFFFA0
:1021A0000029EBD003B5FFF7A7FF0EBC4243891A05
:1021B0001847C0468446101C62468C46191C63466C
:1021C00000E0C0461FB500F01BF9002801D4002133
:1021D000C8421FBD10B500F04BF84042013010BDA1
:1021E00010B500F00DF9002801DB002010BD012022
:1021F00010BDC04610B500F003F9002801DD002035
:1022000010BD012010BDC04610B500F07BF80028BD
:1022100001DC002010BD012010BDC04610B500F04B
:1022200071F8002801DA002010BD012010BDC04661
:1022300038B50E4B0C4A041C0D1CFFF7EFFF0028AD
:1022400004D1201C291CFFF759FD38BD074B064A55
:10225000201C291CFFF71EFAFFF750FD80231B06E8
:10226000C018F2E7C046C046000000000000E04190
:10227000F0B55F4656464D464446F0B40D1C041C6E
:102280008046E80F814618030F03000B3F0B83B015
:1022900084461B48009749005E00DF0F490D9246B7
:1022A000760DBB4681420CD01548864210D00120E5
:1022B000B14215D003B03CBC90469946A246AB460D
:1022C000F0BD009F01202743F4D10D488642EED196
:1022D000604602430120002AECD10120B142E9D13D
:1022E000009B6345E6D1D045E4D1D94506D000290D
:1022F000E0D11C43201C441EA041DBE70020D9E7AD
:10230000FF070000F0B55F4656464D464446F0B420
:10231000CD0FDE0FAC461D032D0BB146374E0F031C
:102320004C00AB465D0080463F0B640D92466D0D40
:10233000B44232D0314EB54235D0002C0ED13843A4
:1023400041424141081C002D0BD0002919D1CC4538
:102350002DD0654668420123184318E0002DF6D1C0
:10236000281C59460A4353425341002806D1002BEA
:10237000EDD0634658420123184308E00020002BAB
:1023800005D14A46504250414042012318433CBCCB
:1023900090469946A246AB46F0BD3E1C0643C9D0C6
:1023A00002204042F3E75E461643C6D0F8E7AC424F
:1023B00007DC0BDA6146484248414042012318439A
:1023C000E5E76646704201231843E0E75F450AD817
:1023D0000ED000205F45DAD265466842684140422F
:1023E00001231843D3E76246504201231843CEE746
:1023F000D045F8D80020D045EED3C8E7FF0700004D
:10240000F0B556464D4644465F46F0B40D1C83B0C9
:10241000041C0190E80F814618030F03000B3F0BCB
:1024200084463548009749005E00DF0F490D92460B
:10243000760DB846814234D02F48864236D00029E6
:1024400018D0002E1FD1341C67463A4353425341E3
:10245000002C1FD00020002B05D142465042504195
:1024600040420123184303B03CBC90469946A24623
:10247000AB46F0BD0098044360426041041C002E4E
:10248000E2D00028E9D1C14515D04F46784201235A
:102490001843E8E7002BF6D04B4658420123184377
:1024A000E1E7009F02202743DDD1C5E76746022010
:1024B0001743D8D1C3E7B14204DD4A465042012355
:1024C0001843D0E7B14207DB00986045E4D80AD052
:1024D000009F00206745C6D24F467842784140426F
:1024E00001231843BFE7019A5245D5D8019A00202D
:1024F0005245F1D3B7E7C046FF07000080B500AFF3
:10250000BD4680BD0000000090B585B000AF6C4BAB
:1025100001221A706B4BDB6C181C01F05FFC614CE4
:102520005F4BBB60FC60012000F056F9654B1B6EF1
:10253000181C01F0C9FB644B1B78012B07D1614BC0
:10254000DB6C181C01F032FC5F4B00221A705F4BF1
:102550001B68012B04DC5D4B1B685A1C5B4B1A602B
:102560005A4B1B68012B4ADD594B181C01F0D8FB54
:10257000584B1B78002B07D0564B1B78564A101C23
:10258000191C03F033F919E0514B1B88181CFFF795
:10259000E9FB031C0C1C181C211C434A434BFEF78F
:1025A000E9FD031C0C1C181C211C414A414BFEF781
:1025B000BDFA031C0C1C494A13605460484B1B783D
:1025C0001A1C464B5C681B684649D2008A18136087
:1025D0005460404B00221A703D4B00221A80404B41
:1025E0001B780133DAB23E4B1A70364BDB6C181C89
:1025F00001F01CFC334BDB6C181C01F0D7FB384B93
:102600001B780B2B43D900237B6012E0354A7B6893
:10261000DB00D3185C681B68B868F9681A1C231CB7
:10262000FDF762FF031C0C1CBB60FC607B68013380
:102630007B607B680B2BE9DDB868F9681E4A1F4B8D
:10264000FEF774FA031C0C1CBB60FC60264B1B6875
:10265000181CFFF7F9FB031C0C1C181C211CBA6882
:10266000FB68FEF763FA031C0C1C181C211C104AA3
:10267000104BFEF77FFD031C0C1C181C211CFFF7E0
:1026800035FC021C194B1A60154B00221A700D4BB9
:102690001B6E181C01F0FCFABD4605B090BDC0468B
:1026A00000000000000000008716D9CEF753054057
:1026B0000000000000408F400000000000002840A3
:1026C00005F0FF1FA8F1FF1F04F0FF1FD8F0FF1F48
:1026D000CCF0FF1FDCF0FF1FA09C0000D0F0FF1F1C
:1026E000DDF0FF1F78F2FF1F00F0FF1FE8F0FF1F73
:1026F00080B500AF034B1B780133DAB2014B1A707F
:10270000BD4680BDDCF0FF1F80B500AFBD4680BD7B
:1027100080B500AFBD4680BD80B500AFBD4680BD71
:1027200080B500AFBD4680BD80B500AF024B012231
:102730001A70BD4680BDC046ECF4FF1F80B500AFE7
:10274000024B01221A70BD4680BDC046F0F4FF1F47
:10275000F0B585B000AFB860F9603A607B60B868EA
:10276000F9683A687B68FEF795FF031C0C1C1D1C7A
:10277000261CB86BF96B3A6B7B6BFEF78BFF031C67
:102780000C1C281C311C1A1C231CFEF7F3FC031C18
:102790000C1C1D1C261CB86AF96A3A687B68FEF797
:1027A00079FF031C0C1C281C311C1A1C231CFEF76F
:1027B000BDF9031C0C1C181C211C3A6B7B6BFDF72C
:1027C00093FE031C0C1C181C211CFFF797FA031C1A
:1027D000181CBD4605B0F0BD90B585B000AF021C19
:1027E000FB1D1A703C23BB60FB1D1B78012B03D122
:1027F0001B4B00221A6004E0194B1B685A1C184B33
:102800001A60BA68164B1B689A4221D2154B0022F7
:102810001A60154B00221A70144B00221A70104BCC
:1028200000221A60124BDB6C181C01F0D7FA00234F
:10283000FB600AE00F4AFB68DB00D218074C064B2E
:1028400013605460FB680133FB60FB680B2BF1DD08
:10285000BD4605B090BDC04600000000000000006D
:10286000E4F0FF1FE8F0FF1FDDF0FF1F05F0FF1F82
:10287000A8F1FF1F78F2FF1F80B584B000AF021CE3
:10288000FB1D1A703B1C0F3300221A70FB1D1B78B6
:102890005BB2303B092B36D89A001E4BD3181B680D
:1028A0009F463B1C0F3300221A702CE03B1C0F3359
:1028B00001221A7027E03B1C0F3302221A7022E01B
:1028C0003B1C0F3303221A701DE03B1C0F33042204
:1028D0001A7018E03B1C0F3305221A7013E03B1CE2
:1028E0000F3306221A700EE03B1C0F3307221A70BA
:1028F00009E03B1C0F3308221A7004E03B1C0F3325
:1029000009221A70C0463B1C0F331B78181CBD46A9
:1029100004B080BD589D000080B582B000AF0A1C95
:10292000FB1D011C1970BB1D1A70FB1D1A78131CAE
:102930009B009B185B001A1CBB1D1B78D318181C2E
:10294000BD4602B080BDC046F0B589B006AF464B6B
:1029500000221A70454B00221A70C046424B1B7869
:10296000002BFBD0C046414B1B78002BFBD0404ACC
:10297000404B101C08211A1C01F07AFA031C1A1C87
:102980003D4B1A703A4B5B78DBB2FC1D5BB2181CF6
:10299000FFF772FF031C2370354B9B78DBB2BC1D25
:1029A0005BB2181CFFF768FF031C2370FB1D1A782D
:1029B000BB1D1B78101C191CFFF7AEFF031CDAB2FD
:1029C0002E4B1A702D4B1B78181CFFF709FA0A1CA6
:1029D000011C204C1E4B204D204E009501961D4E93
:1029E0001B4D029503961E4D1E4E04950596081C20
:1029F000111C1A1C231CFFF7ABFE021C204B1A6093
:102A00001B4B1B78191C1A4B5B781A1C184B9B78B4
:102A10001748C078041C1B48009402F0E7FE174BCF
:102A20001B781A1C164B1B681749081C111C1A1C12
:102A300002F0DCFE104B1B78002B06D00E4B1B78EF
:102A4000124A101C191C02F0D1FEBD4603B0F0BDA5
:102A50000000000000000000000000000080464070
:102A60000000000000988940ECF4FF1FF0F4FF1F05
:102A7000E0F4FF1FEEF4FF1FE4F4FF1FDEF0FF1F82
:102A8000E0F0FF1FAC9C0000BC9C0000CC9C000050
:102A9000F0B593B006AF00F05FFF0120002102F017
:102AA0007DF9A94B0020191C02F0A6F90120012193
:102AB00002F074F9A54B0120191C02F09DF9FFF7F3
:102AC00043FF0020FFF788FEA14B1A699E4B1B882D
:102AD000101C191C02F068FB9D4BDA689A4B1B888E
:102AE000101C191C02F0D4FA994BDB68181C02F078
:102AF000B7FA974B1B69181C02F03EFB944BDB6B3B
:102B0000181C00F03DFE031CDBB2012B09D1904BD9
:102B1000DB6A181C00F090FB8D4B5B69181C00F001
:102B20003BFB8B4B1B6C181C00F068FE031CDBB2DC
:102B3000012B03D0874BDB78582B09D1844BDB6A00
:102B4000181C00F06BFB824B5B69181C00F016FB35
:102B5000804B1B784C2B3BD17F4B1B68181CFFF71D
:102B600001F9051C0E1C7D4B1B88181CFFF738F95A
:102B7000386279627A4B1B88181CFFF731F90A1CFE
:102B8000011C684C664B3B607C60674B674C3B614B
:102B90007C613B697C69009301943B6A7C6A029387
:102BA000039404910592281C311C3A687B68FFF756
:102BB000CFFD031CFB62664B5A68FB6A9BB2101C7C
:102BC000191C02F0D9F9624B5B68181C02F0BCF9C1
:102BD000604B1B78522B3BD15F4B1B68181CFFF7D7
:102BE000C1F8051C0E1C5D4B1B88181CFFF7F8F87C
:102BF000B861F9615B4B1B88181CFFF7F1F80A1CE0
:102C0000011C484C464B3B607C60474B474CBB60CB
:102C1000FC60BB68FC6800930194BB69FC6902938B
:102C2000039404910592281C311C3A687B68FFF7D5
:102C30008FFD031CBB62464B5A68BB6A9BB2101CDB
:102C4000191C02F099F9424B5B68181C02F07CF9E0
:102C5000404B1B78532B07D13D4B5A683F4B1B8889
:102C6000101C191C02F088F9394BDB69181C00F0A4
:102C700095FC031CDBB2012B51D1354B1B6A181C90
:102C800000F0C8FC031CDBB2012B48D1304B5B6A5F
:102C9000181C00F0FBFC031CDBB2012B3FD12C4BBA
:102CA0009B6A181C00F02EFD031CDBB2012B36D1F1
:102CB0002CE0264B1B88181CFFF792F80A1C011CFD
:102CC000184C174B1A4D1B4E009501961A4D1B4E72
:102CD000029503961A4D1B4E04950596081C111C6F
:102CE0001A1C231CFFF734FD031C9AB21B4B1A80DD
:102CF0001A4B1B881C4C1B199AB2194B1A80174B84
:102D00001B881A4A9B189AB2164B1A80104BDB6B21
:102D1000181C00F035FD031CDBB2012BC9D0BCE64A
:102D20000000000000000000000000000098894042
:102D300000000000E0FFEF4000000000A0CCEC40ED
:102D4000000000004066EE40F2F4FF1FE6F4FF1FB3
:102D5000A8F1FF1FE0F4FF1FE0F0FF1F06F0FF1FC8
:102D600008F0FF1F0AF0FF1F33030000CDFCFFFF38
:102D700080B58AB000AFF860B9607A607B687B622A
:102D800004233B620323FB610223BB6101237B61BC
:102D900001233B61FA68BB689A4202D07B68002B32
:102DA00000D14DE049E0BB68FA69134018D1FB68D7
:102DB000FA69134014D17A6A3B6A9A4210D3FB68CD
:102DC000BA6812681A60FA683B6AD318FB60BA687E
:102DD0003B6AD318BB607A6A3B6AD31A7B622CE0E9
:102DE000BB687A69134018D1FB687A69134014D123
:102DF0007A6ABB699A4210D3FB68BA6812881A8053
:102E0000FA68BB69D318FB60BA68BB69D318BB60AA
:102E10007A6ABB69D31A7B620FE0FB68BA681278E2
:102E20001A70FA683B69D318FB60BA683B69D3181B
:102E3000BB607A6A3B69D31A7B627B6A002BB2D192
:102E4000BD460AB080BDC04690B583B000AF234BED
:102E5000002B00D13EE000237B601DE01F497A6813
:102E6000131C5B009B189B00CB1858681B497A68A1
:102E7000131C5B009B189B005958184C7A68131C54
:102E80005B009B189B00E31808331B681A1CFFF7B4
:102E90006FFF7B6801337B6010497A68131C5B000D
:102EA0009B189B005B58002BD8D10C497A68131CE7
:102EB0005B009B189B00CB185B68002BCED10749A9
:102EC0007A68131C5B009B189B00CB1808331B68A7
:102ED000002BC3D1BD4603B090BDC04680A1000009
:102EE00080B500AFBD4680BD80B500AFBD4680BD9A
:102EF0000A4C201C002805D0854681B00020C04324
:102F0000009001B0FFF7ECFF00F096FCFFF79CFF8C
:102F1000FFF7EAFFFDF7ACFAFEE7C04600300020FD
:102F200080B584B000AF78601A4BFB60FB687A68AC
:102F30005A60FB6800221A70174A1749174BCB5882
:102F4000802109051943154BD150154B144A91683E
:102F5000144A0A409A60124B114AD168114A0A4039
:102F6000DA60114B0C229A600F4B0F4AD2680F2186
:102F70008A4304210A43DA600B4B00221A620A4B8F
:102F800040225A62094BFA689A61FB68181CBD46D8
:102F900004B080BDECF0FF1F007004403C10000046
:102FA00000A00440FFF8FFFE00B00340A8F1FF1F9F
:102FB00080B582B000AF78600D4B1A6A8023134051
:102FC00001D0082310E00A4B094A526A48218A437B
:102FD0005A62074B064A126A40218A431A62044B1E
:102FE0007A6852781A600023181CBD4602B080BD72
:102FF00000B0034080B582B000AF7860064B064A4F
:10300000126A40218A431A62034B1F221A6000236E
:10301000181CBD4602B080BD00B0034080B586B02C
:1030200000AFF860B960FB1D1A70FB687B61FB1D87
:103030001B78012B03D8FB1D1B78002B01D1962395
:1030400017E00E4B1A6A8023134001D0082310E0CA
:103050007B69FA1D12781A70BB681B78022B01D9A4
:10306000822306E0BB681B78054AD25C7B695A70F4
:103070000023181CBD4606B080BDC04600B003400A
:10308000809D000080B584B000AF786039603B68F7
:10309000BB603B1C0F3300221A7015E03B1C0F3342
:1030A0001B785B00BA68D3180D4A391C0F310978B8
:1030B000043189008A5892B21A803B1C0F331A7867
:1030C0003B1C0F3301321A707B681B783A1C0F329D
:1030D00012789A42E2D30023181CBD4604B080BD8A
:1030E00000B0034080B584B000AF7860084B1A6828
:1030F00080231340FB60FB68002B03D0044B1B694B
:10310000012300E00023181CBD4604B080BDC0466A
:1031100000B0034080B584B000AF7860114BFB6015
:10312000FB687A681A60104B0F4A52698021890344
:103130000A435A610C4B0C4A11680C4A0A401A6047
:103140000B4B0B4A516D0B4A0A40802149000A4340
:103150005A65094BFA685A61FB68181CBD4604B0F1
:1031600080BDC046F4F0FF1F00F10F40FFFFDFFFFE
:1031700000D00440FFF8FFFEA8F1FF1F80B582B029
:1031800000AF7860034B802292039A60BD4602B084
:1031900080BDC04600F10FF880B582B000AF786006
:1031A000034B802292035A60BD4602B080BDC046E8
:1031B00000F10FF880B584B000AF7860114BFB6070
:1031C000FB687A681A60104B0F4A526980214900E7
:1031D0000A435A610C4B0C4A11680C4A0A401A60A7
:1031E0000B4B0B4A116A0B4A0A40802149000A43E3
:1031F0001A62094BFA68DA62FB68181CBD4604B013
:1032000080BDC046F8F0FF1F40F00F40FFFEFFFFFB
:1032100000A00440FFF8FFFEA8F1FF1F80B582B0B8
:1032200000AF7860034B802252009A60BD4602B026
:1032300080BDC04640F00FF880B582B000AF786026
:10324000034B802252005A60BD4602B080BDC0468A
:1032500040F00FF880B584B000AF7860114BFB6090
:10326000FB687A681A60104B0F4A52698021890006
:103270000A435A610C4B0C4A11680C4A0A401A6006
:103280000B4B0B4A516A0B4A0A40802149000A4302
:103290005A62094BFA681A63FB68181CBD4604B0F1
:1032A00080BDC046FCF0FF1F40F00F40FFFDFFFF58
:1032B00000A00440FFF8FFFEA8F1FF1F80B582B018
:1032C00000AF7860034B802292009A60BD4602B046
:1032D00080BDC04640F00FF880B584B000AF786084
:1032E000114BFB60FB687A681A60104B0F4A5269F9
:1032F0008021C9000A435A610C4B0C4A11680C4AE0
:103300000A401A600B4B0B4A916A0B4A0A40802113
:1033100049000A439A62094BFA685A63FB68181C11
:10332000BD4604B080BDC04600F1FF1F40F00F4015
:10333000FFFBFFFF00A00440FFF8FFFEA8F1FF1F06
:1033400080B582B000AF7860034B8022D2009A60D3
:10335000BD4602B080BDC04640F00FF880B584B0D5
:1033600000AF7860114BFB60FB687A681A60104B05
:103370000F4A5269802109010A435A610C4B0C4AD9
:1033800011680C4A0A401A600B4B0B4AD16A0B4A6F
:103390000A40802149000A43DA62094BFA689A63BD
:1033A000FB68181CBD4604B080BDC04604F1FF1F79
:1033B00040F00F40FFF7FFFF00A00440FFF8FFFEC2
:1033C000A8F1FF1F80B582B000AF7860034B802268
:1033D00012019A60BD4602B080BDC04640F00FF8B1
:1033E00080B584B000AF7860104BFB60FB687A68F2
:1033F0001A600F4B0E4A526902210A435A610C4B64
:103400000B4A126802218A431A600A4B094A516822
:10341000094A0A40802149000A435A60074BFA686A
:103420005A64FB68181CBD4604B080BD08F1FF1F3C
:1034300000F10F4000D00440FFF8FFFEA8F1FF1F8D
:1034400080B582B000AF7860024B02229A60BD4620
:1034500002B080BD00F10FF880B584B000AF786095
:103460000C4BFB60FB687A681A600B4B0A4A526986
:1034700080210A435A61084B074A126880218A4317
:103480001A60064BFA685A65FB68181CBD4604B002
:1034900080BDC0460CF1FF1FC0F00F40A8F1FF1F18
:1034A00080B582B000AF7860024B80229A60BD4642
:1034B00002B080BDC0F00FF880B584B000AF786076
:1034C0000D4BFB60FB687A681A600C4B0B4A526923
:1034D00080218A435A610A4B094AD169094A0A4044
:1034E000802149000A43DA61074BFA689A65FB6854
:1034F000181CBD4604B080BD10F1FF1FC0F00F4086
:1035000000C00440FFF8FFFEA8F1FF1F80B584B0A3
:1035100000AF7860094BFB60FB687A681A60084B63
:10352000074A526902218A435A61064BFA68DA65F2
:10353000FB68181CBD4604B080BDC04614F1FF1FD7
:1035400000F10F40A8F1FF1F80B584B000AF786094
:103550000D4BFB60FB687A681A600C4B0B4A526992
:1035600004218A435A610A4B094A9168094A0A4070
:10357000802149000A439A60074BFA68DA61FB68C8
:10358000181CBD4604B080BD18F1FF1F00F10F40AC
:1035900000D00440FFF8FFFEA8F1FF1F80B584B003
:1035A00000AF7860054B1A6904231340FB60FB6889
:1035B0009B08181CBD4604B080BDC04600F10FF842
:1035C00080B584B000AF78600D4BFB60FB687A6813
:1035D0001A600C4B0B4A526908218A435A610A4B04
:1035E000094AD168094A0A40802149000A43DA6041
:1035F000074BFA681A62FB68181CBD4604B080BD10
:103600001CF1FF1F00F10F4000D00440FFF8FFFE47
:10361000A8F1FF1F80B584B000AF7860054B1A6930
:1036200008231340FB60FB68DB08181CBD4604B090
:1036300080BDC04600F10FF880B584B000AF78605F
:103640000D4BFB60FB687A681A600C4B0B4A5269A1
:1036500010218A435A610A4B094A1169094A0A40F2
:10366000802149000A431A61074BFA685A62FB68D5
:10367000181CBD4604B080BD20F1FF1F00F10F40B3
:1036800000D00440FFF8FFFEA8F1FF1F80B584B012
:1036900000AF7860054B1A6910231340FB60FB688C
:1036A0001B09181CBD4604B080BDC04600F10FF8D0
:1036B00080B584B000AF78600D4BFB60FB687A6822
:1036C0001A600C4B0B4A526920218A435A610A4BFB
:1036D000094A5169094A0A40802149000A435A614E
:1036E000074BFA689A62FB68181CBD4604B080BD9F
:1036F00024F1FF1F00F10F4000D00440FFF8FFFE4F
:10370000A8F1FF1F80B584B000AF7860054B1A693F
:1037100020231340FB60FB685B09181CBD4604B006
:1037200080BDC04600F10FF880B584B000AF78606E
:103730000D4BFB60FB687A681A600C4B0B4A5169B1
:103740000B4A0A405A610B4B0A4A516B0A4A0A401B
:10375000802149000A435A63084BFA68DA63FB6820
:10376000181CBD4604B080BD28F1FF1F80F00F403B
:10377000FFDFFFFF00B00440FFF8FFFEA8F1FF1FCE
:1037800080B584B000AF7860054B1A6980239B0137
:103790001340FB60FB685B0B181CBD4604B080BD8A
:1037A00080F00FF880B584B000AF78600D4BFB60FF
:1037B000FB687A681A600C4B0B4A51690B4A0A4045
:1037C0005A610B4B0A4A516C0A4A0A40802149004F
:1037D0000A435A64084BFA681A64FB68181CBD4611
:1037E00004B080BD2CF1FF1F80F00F40FFFFFDFFF4
:1037F00000B00440FFF8FFFEA8F1FF1F80B584B0C1
:1038000000AF7860054B1A6980239B021340FB6070
:10381000FB685B0C181CBD4604B080BD80F00FF83F
:1038200080B500AFFEF76AFEBD4680BD80B500AF33
:10383000FFBEBD4680BDC04680B500AF3A4A3B4999
:103840003B4BD1503B4A88235B010021D150394A80
:10385000394BC0218902D150364A3649374BCB58B3
:10386000F82189011943354BD150354B9B78DBB298
:103870001A1C0823134007D0314B314A9278D2B238
:1038800008210A43D2B29A702A4A2B4B802149025E
:10389000D150284A27492B4BC9582B4B1940294B4B
:1038A000D150244B234A1268C02109030A431A60ED
:1038B000204A2049234BC958244B0B4080214904FE
:1038C0001943204BD150224B06221A70204B002264
:1038D0005A701F4B1E4AD278D2B2D2B2111C1F228C
:1038E0000A40D2B2602149420A43D2B2D2B2DA705F
:1038F000184B00221A70164B00221A71144B00222A
:103900005A71C046124B9B79DBB21A1C102313402C
:10391000F8D0C0460E4B9B79DBB21A1C0C23134027
:10392000F8D1BD4680BDC04600E000E000000000C8
:10393000080D000000700440441000003810000022
:1039400000D0074004100000FFFFFCFFFFFFFFFC5A
:10395000004006400050064080B500AF5F4B5F4A14
:1039600011695F4A0A40E021C9000A431A615D4BB0
:103970005C4A5279D2B21F218A43D2B25A71594B52
:10398000584A1279D2B207218A43D2B21A71564BE1
:10399000554A1278D2B2D2B273218A43D2B25021A0
:1039A0000A43D2B2D2B21A704F4B4F4A5278D2B2B7
:1039B000D2B263218A43D2B240210A43D2B2D2B2F8
:1039C0005A70494B484A9278D2B219218A43D2B2EE
:1039D0009A70464B00221A70454B454A5269202185
:1039E0008A435A613D4B3D4A116D3D4A0A40E021F0
:1039F000C9000A431A653F4A3E49C1239B00C95882
:103A00003D4B1940C1239B00D150002001F072FAB8
:103A1000002001F0FBFA002001F084FB0020FFF7FA
:103A200079FB364B5B69181CFFF7A8FB01F04CFAD9
:103A30000020FFF789FD0020FFF7C2FD0020FFF7FF
:103A4000FBFD0020FFF734FE0020FFF7B3FB2B4BFC
:103A5000DB6A181CFFF7E2FB0020FFF7FBFB274B9C
:103A60001B6B181CFFF72AFC0020FFF735FC234BCB
:103A70005B6B181CFFF764FC0020FFF76FFC1F4B0B
:103A80009B6B181CFFF79EFC0020FFF74DFE0020EB
:103A9000FFF788FE0020FFF7A3FC184B5B6C181C97
:103AA000FFF7CEFC002000F059F9002000F0E8FB01
:103AB0000020FFF7D1FC114B5B6D181CFFF7F0FCE9
:103AC0000020FFF7F9FC0020FFF720FD002000F0A8
:103AD00099F800F0D7FA62B6BD4680BD0090044068
:103AE000FFF8FFFE00F0074000D0074000E007406D
:103AF000C0F00F4000E100E0FFFF3FFFA8F1FF1F13
:103B000080B586B000AFF860B9607A6000237B6151
:103B10002BE01A4B1B79DBB21A1C202313400ED169
:103B2000164B1F221A717B69002B00D020E0C04683
:103B3000124B1B79DBB21A1C20231340F8D07B698F
:103B400001337B610D4BDB79DAB2BB681A70BB685D
:103B50001B780D2B03D1BB680A221A7008E0BB68E2
:103B60000133BB607B68013B7B607B68002BD0D15D
:103B70007B69181CBD4606B080BDC04600A006404B
:103B800080B586B000AFF860B9607A6000237B61D1
:103B900023E0C046154B1B79DBB2DBB25BB2002BD6
:103BA000F8DABB681B780A2B0AD1104B0D22DA71A8
:103BB000C0460E4B1B79DBB2DBB25BB2002BF8DAEE
:103BC0000A4BBA681278DA71BB680133BB607B6953
:103BD00001337B617B68013B7B607B68002BD8D124
:103BE0007B69181CBD4606B080BDC04600A00640DB
:103BF00080B582B000AF7860FEF786FCBD4602B0AB
:103C000080BDC04680B584B000AF7860184BFB60C3
:103C1000FB687A681A60174BFA681A60164B164AE6
:103C20005169164A0A40802149000A435A61124BE1
:103C3000114A5169124A0A4012490A435A61124A0A
:103C40001149C7239B00CB589B009908C7239B00B1
:103C5000D1500D4B0C4A1268802109060A431A60A4
:103C60000A4BFA681A66FB68181CBD4604B080BD92
:103C700034F1FF1F38F1FF1F00C00440FFF8FFFEC2
:103C8000FFFFF0FE0000090100E100E0A8F1FF1FC6
:103C900080B582B000AF7860094B094A5269802133
:103CA00049040A435A61064B054A5169054A0A40CC
:103CB000902109030A435A61BD4602B080BDC04647
:103CC00000C00440FFFFF0FE80B582B000AF786016
:103CD000044B044A5169044A0A405A61BD4602B085
:103CE00080BDC04600C00440FFFFF0FE80B582B03A
:103CF00000AF094B1B687B60084B084A5269802162
:103D000049040A435A617B681B68181CFFF770FF5F
:103D1000BD4602B080BDC04638F1FF1F00C0044060
:103D200080B582B000AF7860064BDB6C181C00F0E9
:103D30006DF8031C1A1C7B681A800023181CBD46F2
:103D400002B080BDA8F1FF1F80B582B000AF7860DF
:103D5000FEF7CEFCBD4602B080BDC04680B584B043
:103D600000AF78600F4BFB60FB687A689A60FB6875
:103D700001221A710C4BFA68DA64002001F000FC91
:103D8000021CFB681A60FB681B68002B04D1064B01
:103D90000022DA64002300E0FB68181CBD4604B072
:103DA00080BDC0463CF1FF1FA8F1FF1F80B584B065
:103DB00000AF78607B68FB60FB681B79002B07D144
:103DC000FB6801221A71FB681B68181C01F04AFC91
:103DD0000023181CBD4604B080BDC04680B584B029
:103DE00000AF78607B68FB60FB681B79002B07D015
:103DF000FB6800221A71FB681B68181C01F04AFC62
:103E00000023181CBD4604B080BDC04680B584B0F8
:103E100000AF78607B68FB60FB681B68181C01F0D2
:103E200059FC031C181CBD4604B080BD80B584B08D
:103E300000AF78607B68FB60FB681B68181C01F0B2
:103E40003BFC031C181CBD4604B080BD80B584B08B
:103E500000AF7860054BDB6CFB60FB689B68181C4F
:103E6000FFF772FFBD4604B080BDC046A8F1FF1F3A
:103E700090B587B000AFF8607A603B1C0A330A1C2B
:103E80001A803B1C153300221A703B1C0A331B8816
:103E9000002B04D17B6800221A800023DFE0724BE4
:103EA0001B78DBB25BB2002B4EDA3B1C1133EFF315
:103EB000108072B618706D4B1B78DBB20133DBB229
:103EC0006A4A191C1170012B04D13B1C11331A785A
:103ED000674B1A70674B19683C1C1234FA683B1C1C
:103EE0000A331B88081C111C1A1C012300F02CFD2E
:103EF000031C23803B1C12331B88082B0FD15B4B08
:103F00001B78DBB2013BDBB2584A191C1170002B45
:103F100003D1574B187880F310880C239FE0534B44
:103F20001B78DBB2013BDBB2504A191C1170002B2D
:103F300003D14F4B187880F310887B683A1C0A3203
:103F400012881A8000238AE03B1C1033EFF31080A4
:103F500072B61870454B1B78DBB20133DBB2434AB3
:103F6000191C1170012B04D13B1C10331A78404BE3
:103F70001A703D4B1B781A1C4123134003D03B1C85
:103F800015330D221A70384B1B7849229343DAB24D
:103F9000354B1A707B6800221A803B1C16330022B6
:103FA0001A8043E0344B1B78002B28D0324B1B780F
:103FB000013BDAB2304B1A703B1C16331B88FA688F
:103FC000D2182E4B1B78591CC8B22C4908702C49AA
:103FD000CB5C1370294B1B78072B02D9274B00228F
:103FE0001A707B681B8801339AB27B681A803B1C6D
:103FF00016331A883B1C163301321A8016E01B4B0D
:104000001B78DBB2013BDBB2184A191C1170002B84
:1040100003D1174B187880F310883B1C15331B789D
:104020000D2B01D10D231AE00A2318E03A1C163299
:104030003B1C0A3312881B889A42B3D30B4B1B7864
:10404000DBB2013BDBB2094A191C1170002B03D112
:10405000074B187880F310883B1C15331B78181C0D
:10406000BD4607B090BDC04660F1FF1F30F1FF1F95
:10407000F4F4FF1FF8F4FF1F48F1FF1F49F1FF1F81
:104080004CF1FF1F80B500AF124B00221A70124B8B
:1040900000221A70114B00221A70114B00221A7064
:1040A000104B00221A70104B00221A700F4B002286
:1040B0001A70002000F0AEFB021C0D4B1A600C4B76
:1040C0001A680C4B101C191C012200F057FDBD464C
:1040D00080BDC04660F1FF1F48F1FF1F4AF1FF1F7E
:1040E00049F1FF1F55F1FF1F57F1FF1F56F1FF1F49
:1040F000F8F4FF1F54F1FF1F80B582B000AF786065
:10410000FEF706FBBD4602B080BDC04680B582B05A
:1041100000AF7860FEF7F8FABD4602B080BDC04639
:1041200080B582B000AF7860154B1B78002B22D091
:10413000134B1B78013BDAB2114B1A70114B1B78F1
:104140000133DAB20F4B1A700E4B1B78072B02D9D2
:104150000C4B00221A700A4B1B78002B0BD00A4B19
:104160001A68084B1B78191C084BCB18101C191C1B
:10417000012200F0B7FCFEF7D3FABD4602B080BDC5
:1041800055F1FF1F56F1FF1FF8F4FF1F58F1FF1FF5
:1041900080B584B000AF78603B1C0F3300221A70EA
:1041A000314B1A68314B101C191C012200F0E6FC3F
:1041B0002F4B1B78072B2BD82D4B1B780133DAB2F2
:1041C0002B4B1A702B4B1B785A1CD1B2294A1170F9
:1041D000264A1178284AD154264B1B78072B02D93E
:1041E000244B00221A703B1C0F333A1C0F321278FA
:1041F00002210A431A701E4B1B78082B17D13B1C57
:104200000F333A1C0F32127801210A431A700EE064
:104210001A4B1B7840221343DAB2184B1A703B1C1E
:104220000F333A1C0F32127804210A431A703B1CD8
:104230000F331A780423134002D0FEF77FFA0FE001
:104240003B1C0F331A780223134001D0FEF764FAA7
:104250003B1C0F331A780123134001D0FEF764FA98
:10426000BD4604B080BDC046F8F4FF1F54F1FF1FE7
:1042700048F1FF1F4AF1FF1F4CF1FF1F60F1FF1FC4
:1042800080B584B000AF78604C4BFB60FB680022C7
:104290005A80FB6800221A81FB6800225A60FB6882
:1042A00000225A81FB6800221A82FB680022DA6031
:1042B000FB687A685A61424A4149424BCB58802197
:1042C000C90019433F4BD1503F4B3F4A51683F4AC9
:1042D0000A40802189000A435A603B4B3A4A916860
:1042E0003A4A0A40802189000A439A60384B384A8A
:1042F000D278D2B208218A43D2B2DA70344B344A2F
:10430000D278D2B204218A43D2B2DA70FB6800229A
:104310001A802F4B00229A702D4B00229A712C4B41
:1043200000229A722A4B00225A71254A2449294BAD
:10433000C958294B0B408021C9041943254BD15042
:10434000234B234A1278D2B21F218A43D2B21A7069
:104350001F4B68225A701E4B1D4A927AD2B2D2B2BB
:104360001F218A43D2B203210A43D2B2D2B29A7237
:10437000174B174AD27AD2B2D2B202210A43D2B232
:10438000D2B2DA72124B124AD278D2B2D2B2082129
:104390000A43D2B2D2B2DA700D4B0D4AD278D2B201
:1043A000D2B204210A43D2B2D2B2DA700B4BFA680D
:1043B0001A65FB68181CBD4604B080BD64F1FF1F80
:1043C000007004403410000000900440FFF8FFFE2D
:1043D00000A0064004100000FFFFFFF3A8F1FF1F3C
:1043E00090B583B000AFD54B1B683B60FB1D00222E
:1043F0001A70D34BDB78DCB2D14BD14AD278D2B22F
:10440000D2B212218A43D1B2E2B20A43D2B2D2B2BC
:10441000DA70CB4B9B78DBB21A1C2023134000D1FF
:10442000FAE0C74B9B78DBB21A1C1023134000D173
:10443000B0E0221C0123134024D0C14BC04A927823
:10444000D2B220218A43D2B29A70BD4BBC4A927834
:10445000D2B210218A43D2B29A703B6800229A816C
:104460003B6800229A803B681B7801229343DAB2B2
:104470003B681A703B681B7806221343DAB23B682C
:104480001A70C2E13B681B781A1C0223134000D14A
:1044900074E03B689B89002B0ED03B689B89013BF5
:1044A0009AB23B689A81A6493B681B69581C3A68D6
:1044B00010611B780B71A8E13B689B88002B3CD0F6
:1044C0003B681B781A1C042313401FD03B689B8851
:1044D000012B08D19A4B9A4A9278D2B208210A430A
:1044E000D2B29A7007E0964B954A9278D2B20821E0
:1044F0008A43D2B29A70924B914A9278D2B21021EA
:104500008A43D2B29A708E4B1B797EE18C4B8C4AD7
:104510009278D2B204210A43D2B29A70884B3A6898
:10452000D27801210A43D2B21A713B681B78042267
:104530001343DAB23B681A7067E13B681B780122CB
:104540009343DAB23B681A703B685B78012B0FD15A
:104550007B4B7B4A9278D2B220218A43D2B29A70A6
:10456000774B774A9278D2B210218A43D2B29A70AE
:104570003B685B6A181CFFF7BFFD46E1704B3A6869
:1045800092781A713B681B7802221343DAB23B68B7
:104590001A703AE13B689B88013B9AB23B689A806B
:1045A0003B689B88002B0CD03B689B88012B1FD15C
:1045B000634B634A9278D2B208210A43D2B29A700E
:1045C00016E03B681B7801229343DAB23B681A700D
:1045D0005B4B5B4A9278D2B220218A43D2B29A7066
:1045E000574B574A9278D2B208218A43D2B29A7076
:1045F0003B689B68591C3A689160514A1279D2B263
:104600001A703B689B88002B00D0FEE03B685B6A19
:10461000181CFFF77BFDF8E0221C402313405AD002
:10462000221C1023134014D03B6800229A813B685F
:1046300000229A803B681B7801229343DAB23B68E0
:104640001A703F4B3E4A9278D2B210218A43D2B2BE
:104650009A70221C0423134032D0394B384A927886
:10466000D2B2D2B210210A43D2B2D2B29A703B680F
:104670009A8B3B68DB8B9A421ED23B689B8B013343
:104680009AB23B689A832E493B681B6A581C3A6869
:1046900010621B780B713B689A8B3B68DB8B9A42EC
:1046A00000D09EE0FB1DFA1D127801210A431A700A
:1046B0003B680022DA8394E0214B00221A7190E0DB
:1046C0001F4B1F4A9278D2B210218A43D2B29A70FD
:1046D0001B4B1B7985E0221C1023134018D03B682C
:1046E00000229A813B6800229A803B681B78012255
:1046F0009343DAB23B681A70114B114A9278D2B2E6
:1047000010218A43D2B29A703B6801225A7068E045
:104710000B4B9B78DBB21A1C102313403AD0221C9F
:10472000012313400ED0064B054A9278D2B21021D5
:104730008A43D2B29A70024B1B7952E0A4F1FF1F58
:10474000006006403B689A8B3B68DB8B9A421DD227
:104750003B689B8B01339AB23B689A832C493B6838
:104760001B6A581C3A6810621B780B713B689A8B65
:104770003B68DB8B9A4234D1FB1DFA1D1278012174
:104780000A431A703B680022DA832AE0204B002299
:104790001A7126E03B689A8A3B68DB8A9A421ED2ED
:1047A0003B689B8A01339AB23B689A823B689B695B
:1047B000591C3A689161164A1279D2B21A703B6854
:1047C0009A8A3B68DB8A9A420BD1FB1DFA1D12784C
:1047D00002210A431A703B680022DA8201E00C4B86
:1047E0001B79FB1D1A780123134004D03B685B6AD8
:1047F000181CFFF795FCFB1D1A780223134004D008
:104800003B685B6A181CFFF7C3FCBD4603B090BD54
:104810000060064080B584B000AF7860414BFB601B
:10482000FB687A685A62404BFA681A60FB6820227B
:104830001A70FB6810229A70FB6801225A70FB689C
:1048400000229A80FB6800229A81FB680022DA82AB
:10485000FB6800229A82FB680022DA83FB68002250
:104860009A83324A3149324BCB5840211943304B5D
:10487000D150304B00229A702E4B40229A712D4B12
:104880000222DA702C4B2C4A516A2C4A0A408021B1
:1048900089000A435A62284B274A116A274A0A406C
:1048A000802189000A431A62254A2549C2239B00B8
:1048B000CB58C021181C8843011CC2239B00D15037
:1048C0001F4B1F4A1268802149000A431A60194B86
:1048D00010221A70174B00225A71164B00229A713F
:1048E000144B08221A72134B1F225A70114B114A93
:1048F0009278D2B2D2B2802149420A43D2B2D2B225
:104900009A700C4B0B4A9278D2B240210A43D2B231
:104910009A700C4BFA685A66FB68181CBD4604B0C6
:1049200080BDC0467CF1FF1FA4F1FF1F0070044052
:10493000341000000060064000B00440FFF8FFFEA5
:1049400000E100E0A8F1FF1F80B586B000AFF8607D
:10495000B960111C1A1CBB1D19807B1D1A70FB68E5
:104960007B61BB1D1B88002B01D10023B0E07B1DA8
:104970001B78002B01D18123AAE07B691B781A1CCC
:104980000823134001D00923A2E07B695B78012B47
:1049900012D1514BDB78DBB21A1C2023134009D112
:1049A0007B691B781A1C0123134003D17B699B8808
:1049B000002B0DD008238BE07B691B781A1C012388
:1049C000134003D17B699B88002B01D008237FE033
:1049D0003B1C1333EFF3108072B618703F4B1B78FB
:1049E000DBB20133DBB23D4A191C1170012B04D13B
:1049F0003B1C13331A783A4B1A707B691B780122DF
:104A00001343DAB27B691A707B69BA689A607B6972
:104A1000BA1D12889A807B697A1D12785A702E4BC3
:104A20002D4A9278D2B2D2B210210A43D2B2D2B277
:104A30009A70294B9B78DBB21A1C2023134008D0B4
:104A4000254B254A9278D2B204210A43D2B29A70F9
:104A500009E0214B204A9278D2B2D2B220210A43F7
:104A6000D2B2D2B29A707B691B781A1C20231340F1
:104A70000ED07B691B7806221343DAB27B691A7069
:104A8000154B7A69927801210A43D2B21A7110E06B
:104A90007B691B781A1C102313400AD07B691B7892
:104AA00006229343DAB27B691A700B4B7A69D2788B
:104AB0001A710A4B1B78DBB2013BDBB2074A191CA7
:104AC0001170002B03D1064B187880F31088002357
:104AD000181CBD4606B080BD0060064030F1FF1FC7
:104AE000F4F4FF1F80B586B000AFF860B960BB1D5D
:104AF0001A80FB687B61BB1D1B88002B01D1002342
:104B000033E07B69DB8B002B01D008232DE03B1CBD
:104B10001333EFF3108072B61870164B1B78DBB2AC
:104B20000133DBB2134A191C1170012B04D13B1C59
:104B300013331A78104B1A707B69BA681A627B6952
:104B4000BA1D1288DA837B6900229A83094B1B788D
:104B5000DBB2013BDBB2074A191C1170002B03D1F9
:104B6000054B187880F310880023181CBD4606B04A
:104B700080BDC04630F1FF1FF4F4FF1F80B586B042
:104B800000AFF860B960BB1D1A80FB687B61BB1D7C
:104B90001B88002B01D1002333E07B69DB8A002BCB
:104BA00001D008232DE03B1C1333EFF3108072B6C5
:104BB0001870164B1B78DBB20133DBB2134A191C99
:104BC0001170012B04D13B1C13331A78104B1A704F
:104BD0007B69BA689A617B69BA1D1288DA827B693F
:104BE00000229A82094B1B78DBB2013BDBB2074AF9
:104BF000191C1170002B03D1054B187880F3108815
:104C00000023181CBD4606B080BDC04630F1FF1F12
:104C1000F4F4FF1F80B500AF3E4B1B78DBB2032BD3
:104C20003AD03D4B00221A702DE03B4B1B78DAB294
:104C30003A4B1A703A4B1A68384B101C191C012257
:104C4000FEF7ECF9364B1B68181CFEF7B1F9C046AD
:104C5000334B1B68181CFEF745FA031C002BF7D0DA
:104C60002F4B1A682C4B1B78DBB259002D4BCB18FD
:104C7000101C191CFEF706FA274B1B78DBB2013318
:104C8000DAB2254B1A70244B1B78DBB2022BCCD93D
:104C9000254B07221A7037E01F4B1B78DAB21F4BE7
:104CA0001A701F4B1A681D4B101C191C0122FEF7AD
:104CB000B5F91B4B1B68181CFEF77AF91B4B1B78C8
:104CC000002B00D123E0C046154B1B68181CFEF7D3
:104CD00009FA031C002BF7D0114B1A680E4B1B78F6
:104CE000DBB259000F4BCB18101C191CFEF7CAF988
:104CF000094B1B78DBB20E4AD25C0B4B1B78DBB244
:104D00001343DAB2084B1A70024B00221A70BD46E8
:104D100080BDC04611F2FF1F10F2FF1F14F2FF1FEB
:104D200000F5FF1F04F5FF1F19F2FF1F18F2FF1F08
:104D3000849D000080B500AF134B1B78DBB2002BC5
:104D400020D0114B1B78DBB2032B06D00F4B002277
:104D50001A700F4B00221A7012E00E4B1B78DBB258
:104D60000D4AD35CDB43DBB2084A1278D2B213405F
:104D7000DAB2064B1A70074B1B78DAB2044B1A7082
:104D8000FFF748FFBD4680BD11F2FF1F19F2FF1F5C
:104D900014F2FF1F10F2FF1F849D000080B582B047
:104DA00000AF0A1CFB1D011C1970BB1D1A70BB1D36
:104DB0001B78022B01D9022314E00C4B1B78DBB2C9
:104DC000002B01D008230DE0084B03221A70084B7A
:104DD000BA1D12781A70074BFA1D12781A70FFF775
:104DE000A9FF0023181CBD4602B080BD11F2FF1FB1
:104DF00010F2FF1F18F2FF1F80B582B000AF021C37
:104E00003960FB1D1A70FB1D1B78022B01D9022390
:104E10004AE0FB1D1B78264AD35C264A1278D2B2A0
:104E20001340DBB2002B36D1234B1B68181CFEF756
:104E300059F9031C002B2CD01F4B1A681F4B1B78F1
:104E4000DBB259001E4BCB18101C191CFEF71AF9C7
:104E50001A4B1B78DBB2164AD25C164B1B78DBB2BE
:104E60001343DAB2134B1A70134B1B68181CFEF76E
:104E7000C1F8144B00221A70FB1D1B780C4AD35C3E
:104E80000C4A1278D2B21340DBB2002B03D10923B3
:104E90000AE0092308E0FB1D1A78094B5200D35A97
:104EA0009AB23B681A800023181CBD4602B080BD30
:104EB000849D000019F2FF1F00F5FF1F10F2FF1F75
:104EC00004F5FF1F11F2FF1F80B500AF064B002253
:104ED0001A70064B00221A700020FEF721F8021CFF
:104EE000034B1A60BD4680BD19F2FF1F11F2FF1F70
:104EF00000F5FF1F80B584B000AF7860104BFB60F9
:104F0000FB687A689A60FB6801221A71FB680122CB
:104F1000DA800C4BFA685A60002000F08FF9021C0E
:104F2000FB681A60FB681B68002B04D1054B00224C
:104F30005A60002300E0FB68181CBD4604B080BD29
:104F40001CF2FF1FA8F1FF1F80B584B000AF78608E
:104F50007B68FB60FB681B79002B07D1FB68012293
:104F60001A71FB681B68181C00F0CCF90023181C90
:104F7000BD4604B080BDC04680B584B000AF786047
:104F80000A1CBB1C1A807B68FB60FB68BA1C128879
:104F9000DA807B68181C00F005F80023181CBD4659
:104FA00004B080BD80B586B000AF78607B683B619F
:104FB0003B691A683B1C0E33101C191C00F0BAF92F
:104FC0003B1C0E331B88002B05D13B1C16333A6962
:104FD000D2881A800CE03B1C0E331B883A69D288B9
:104FE0005343802212029B181A0C3B1C16331A8062
:104FF0003B691A683B1C16331B88101C00211A1CC5
:1050000000F0B6F9BD4606B080BDC04680B584B09C
:1050100000AF7860104BFB60FB687A689A60FB68B1
:1050200001221A71FB680122DA800C4BFA68DA60FF
:10503000002000F0BFF9021CFB681A60FB681B68C7
:10504000002B04D1054B0022DA60002300E0FB684E
:10505000181CBD4604B080BD28F2FF1FA8F1FF1F39
:1050600080B584B000AF78607B68FB60FB681B791B
:10507000002B07D1FB6801221A71FB681B68181C02
:1050800000F01CFA0023181CBD4604B080BDC046C9
:1050900080B584B000AF78600A1CBB1C1A807B68A6
:1050A000FB60FB68BA1C1288DA807B68181C00F071
:1050B00005F80023181CBD4604B080BD80B586B03D
:1050C00000AF78607B683B613B691A683B1C0E331C
:1050D000101C191C00F00AFA3B1C0E331B88002B15
:1050E00005D13B1C16333A69D2881A800CE03B1C70
:1050F0000E331B883A69D2885343802212029B18D0
:105100001A0C3B1C16331A803B691A683B1C163379
:105110001B88101C02211A1C00F006FABD4606B0BE
:1051200080BDC04680B584B000AF7860104BFB6096
:10513000FB687A689A60FB6801221A71FB68012299
:10514000DA800C4BFA681A61002000F033F9021C77
:10515000FB681A60FB681B68002B04D1054B00221A
:105160001A61002300E0FB68181CBD4604B080BD36
:1051700034F2FF1FA8F1FF1F80B584B000AF786044
:105180007B68FB60FB681B79002B07D1FB68012261
:105190001A71FB681B68181C00F090F90023181C9A
:1051A000BD4604B080BDC04680B584B000AF786015
:1051B0000A1CBB1C1A807B68FB60FB68BA1C128847
:1051C000DA807B68181C00F005F80023181CBD4627
:1051D00004B080BD80B586B000AF78607B683B616D
:1051E0003B691A683B1C0E33101C191C00F07EF939
:1051F0003B1C0E331B88002B05D13B1C16333A6930
:10520000D2881A800CE03B1C0E331B883A69D28886
:105210005343802212029B181A0C3B1C16331A802F
:105220003B691A683B1C16331B88101C01211A1C91
:1052300000F07AF9BD4606B080BDC04680B584B0A6
:1052400000AF7860274B1B68002B39D1264BFB60E1
:10525000FB687A689A60FB6801221A71234A234925
:10526000234BCB58802189041943214BD150214B2A
:1052700000221A601F4B00225A601E4B0022DA6087
:105280001C4B00225A611B4B1B4A9A60194B2C2263
:10529000DA60184B00221A61184B184A1168184A34
:1052A0000A40C02189000A431A60FB6808221A607C
:1052B000104B0F221A600B4BFA681A60FB680CE067
:1052C000084B1B68FB60FB687A689A60FB681B7977
:1052D0000133DAB2FB681A71FB68181CBD4604B0D2
:1052E00080BDC046A8F1FF1F40F2FF1F00700440C0
:1052F0003C10000000900340471D000000A0044047
:10530000FFF8FFFE80B584B000AF78607B68FB607B
:10531000074B074A12689821101C8843011CFA6841
:1053200012680A431A600023181CBD4604B080BDF1
:105330000090034080B584B000AF786039600B4BBB
:105340009A683B1C0E331A803B1C0E333A1C0E32FB
:10535000128801321A803B683A1C0E3212881A8079
:105360000023181CBD4604B080BDC0460090034019
:1053700080B582B000AF7860FB1C19703B1C1A80AE
:10538000FB1C1B78002B01D082230DE00023002B97
:1053900001D0092308E0064900233A1C1288013392
:1053A000DB00CB189A600023181CBD4602B080BDFC
:1053B0000090034080B584B000AF7860374B9B68A5
:1053C000002B5AD1364BFB60FB687A689A60FB6809
:1053D00001221A71334A3349334BCB588021490497
:1053E0001943314BD150314B00221A602F4B002210
:1053F0005A602E4B0022DA602C4B00225A612B4B54
:105400000022DA61294B00225A62284B0022DA621C
:10541000264B00225A63254B24229A60234B1022EC
:10542000DA60224B224A1A61204B2C225A611F4B10
:1054300000229A611D4B2C225A621C4B00229A6258
:105440001C4B1C4A91681C4A0A408021C9000A432F
:105450009A60184B174A1169174A0A408021C900FF
:105460000A431A61FB6808221A60104B0F221A6067
:105470000A4BFA689A60FB680CE0084B9B68FB607B
:10548000FB687A689A60FB681B790133DAB2FB68C3
:105490001A71FB68181CBD4604B080BDA8F1FF1F3F
:1054A0004CF2FF1F007004403C10000000800340DD
:1054B000FFFF000000B00440FFF8FFFE80B584B09D
:1054C00000AF78607B68FB60074B074A1268982141
:1054D000101C8843011CFA6812680A431A600023F2
:1054E000181CBD4604B080BD0080034080B584B068
:1054F00000AF786039600B4B9A683B1C0E331A8002
:105500003B1C0E333A1C0E32128801321A803B6863
:105510003A1C0E3212881A800023181CBD4604B0B3
:1055200080BDC0460080034080B582B000AF786087
:10553000FB1C19703B1C1A80FB1C1B78022B01D929
:10554000822313E0FB1C1B780A4AD35C002B01D09A
:1055500009230BE00849FB1C1B78084AD35C3A1C62
:1055600012880133DB00CB189A600023181CBD465B
:1055700002B080BD8C9D000000800340889D00002B
:1055800080B584B000AF78602E4B9B6C002B47D168
:105590002D4BFB60FB687A68DA60FB6801221A72A7
:1055A0002A4BFA681A602A4A29492A4BCB5880218B
:1055B000C9041943274BD150274B00221A60264BB0
:1055C00000225A60244B0022DA60234B00225A61E9
:1055D000214B224A9A60204B5022DA601E4B1F4A10
:1055E0001A61FB6801221A60FB6808225A601C4A93
:1055F0001B49C4239B00CB589B009908C4239B00E4
:10560000D150174B164A1268802109030A431A60C9
:10561000114B0F221A600B4BFA689A64FB680CE07E
:10562000084B9B6CFB60FB687A68DA60FB681B7A4E
:105630000133DAB2FB681A72FB68181CBD4604B06D
:1056400080BDC046A8F1FF1F58F2FF1F68F2FF1F80
:10565000007004403C10000000A00340FFFF000069
:1056600000E100E080B584B000AF78607B68FB604B
:10567000074B074A12689821101C8843011CFA68DE
:1056800052680A431A600023181CBD4604B080BD4E
:1056900000A0034080B582B000AF7860054B054A9A
:1056A000126898218A431A600023181CBD4602B074
:1056B00080BDC04600A0034080B582B000AF7860D6
:1056C000034B00225A600023181CBD4602B080BD67
:1056D00000A0034080B582B000AF7860034B5B68E8
:1056E0009BB2181CBD4602B080BDC04600A003405E
:1056F00080B582B000AF194B1B683B6000237B6014
:10570000174A00230133DB00D3185A688023134063
:1057100003D07B68012213437B603B681A687B6877
:1057200013407B607A680123134013D00C49002397
:10573000181C0B4A00230133DB00D3185B6880225E
:105740001A43431CDB00CB185A603B68DB68181C0B
:10575000FEF77CFBBD4602B080BDC04668F2FF1F6D
:1057600000A00340084B10B5041C002B02D0002100
:1057700000E000BF054B1868836A002B00D09847F3
:10578000201C04F08BFAC04600000000949D00002D
:1057900070B50E4B0E4D0024ED1AAD101E1CAC4220
:1057A00004D0A300F35898470134F8E704F07EFCD6
:1057B000084B094D0024ED1AAD101E1CAC4204D05C
:1057C000A300F35898470134F8E770BDCCA000005F
:1057D000CCA00000CCA00000D0A00000031C8218C8
:1057E000934202D019700133FAE770470FB40B4BA4
:1057F00013B51C68002C05D0A369002B02D1201C16
:1058000001F0C0FF05ABA168201C049A019300F0D1
:105810002FF816BC08BC04B01847C0466CF0FF1F38
:10582000936810B5013B9360002B05DA9469A3429D
:1058300008DBCBB20A2B05D01368581C1060197016
:10584000C8B201E000F062FF10BDF8B5061C0F1CE5
:10585000141CD518AC4208D02178301C3A1CFFF734
:10586000DFFF0134431CF5D100E00020F8BD00004B
:10587000F0B59FB0061C0F1C03920593002804D0BE
:105880008169002901D101F07DFF754B9F4201D153
:10589000776808E0734B9F4201D1B76803E0724B11
:1058A0009F4200D1F768BB891A070AD53B69002BD4
:1058B00007D006AD00236B6120236B763023AB76D7
:1058C0003BE0301C391C00F079FF0028F1D00120AA
:1058D0004042C2E0059A111D12680591002A76DB4C
:1058E0000992013423782E2B00D181E021785F4882
:1058F000032202F015F8002807D05C492A68431AF1
:10590000402098401043286001342178631C584897
:1059100006220393297602F003F8002800D18AE0DA
:10592000544B002B7ED1059B07220733934308334A
:1059300005936A69049953186B61039C2378002BC3
:1059400004D10399611A029110D003E0252BF8D0FD
:105950000134F3E7301C391C039A029BFFF775FFF3
:10596000013075D06A69029953186B612378002B56
:105970006ED0012252426A606A4600235B320134D3
:105980002B60EB60AB601370AB6521783A48052261
:1059900001F0C6FF002808D0374A0134831A0120DD
:1059A00098402B6818432860EFE72B68D90603D589
:1059B0006A4620215B3211701A0703D56A462B21F3
:1059C0005B32117022782A2A84D0099B05E052426A
:1059D000EA60022213432B6083E72278303A092AD7
:1059E00004D80A214B4301349B18F6E7099379E761
:1059F00063782A2B09D1059B02341A1D1B68059276
:105A0000002B0DDA01235B420AE0013400232278E7
:105A1000303A092A04D80A214B4301349B18F6E78F
:105A2000079363E705AB0093301C291C3A1C134B0A
:105A300000F0C6F807E005AB0093301C291C3A1CA7
:105A40000E4B00F05DFB04900499013100D070E72B
:105A5000BB895A0600D53AE70B981FB0F0BDC04687
:105A6000F09D0000109E0000309E00009E9D0000F2
:105A7000A29D0000C15B0000989D00004B580000F3
:105A8000F0B58BB0161C1C1C129904D5802212068E
:105A9000A4182D2300E00023149F0B7020239F43A4
:105AA000462F08D03A1C453A51424A4110990223E8
:105AB0008918109100E003230093139B109A02931E
:105AC00008AB039309AB01920493321C231C00F032
:105AD00073FF051C472F02D11199C9072CD51099C6
:105AE00069180791462F14D12B78302B0CD1301C1C
:105AF000211C164B144AFCF76DFB002804D1109AA8
:105B0000012313999B1A0B60139A07991368C918FC
:105B10000791301C211C0D4B0B4AFCF75BFB002846
:105B200001D0079A0992099B07998B4204D25A1C0B
:105B3000099230221A70F6E7099B281C5A1B159B04
:105B40001A600BB0F0BDC04600000000000000006D
:105B5000F0B52B2385B0051C0C1C0270861C002997
:105B600001DA4C422D236B70092C1EDD6F460E3777
:105B7000201C0A210197FCF713FB30313970201CDF
:105B80000A21FCF7B7FA013F041E092CF0DC019B47
:105B90003034013B1C706A460F32301C934209D2EC
:105BA0001A78013332700136F5E73023E418337088
:105BB000B01C7470401B05B0F0BD00000000000078
:105BC000F0B593B00C1C0A920B93189E051C01F0C3
:105BD00049FE00680C9002F04DFC002310933368DE
:105BE0000722073393431A1C08320D90277E18684A
:105BF00059683260A064E16402F08EFB012819D17B
:105C0000A06CE16CB94BB84AFCF7EAFA002803D063
:105C1000231C2D2243331A70472F01D8B44E00E0C5
:105C2000B44E03232068236104239843002120609D
:105C3000099191E0A06CE16C02F06EFB23680028F2
:105C40000CD1472F01D8AC4E00E0AC4E03222261AC
:105C5000042293430022236009927DE06268561C6F
:105C600001D1062207E02021381C8843472803D1B0
:105C7000002A01D1012262608022D20013432360F6
:105C800001936B463B3302930FAB6168039310ABF8
:105C900005930023009106930497A26CE36C281CE3
:105CA000FFF7EEFE20233A1C061C9A430F99472A61
:105CB00007D1CB1C02DB606881422EDD023FFFB2C0
:105CC00001E0652F12D8201C01393A1C50300F9189
:105CD000FFF73EFF109B0990C2182261012B02DCE6
:105CE0002168C9072FD5013222612CE0662F15D11A
:105CF0006368002908DD2161002B02D12268D207E8
:105D00001DD50133C91811E0002B03D120680122F1
:105D1000104200D09A1C226111E06727109A91422C
:105D200006DB22682161D20709D50131216106E035
:105D30000123002901DC02235B1AD31823610F9B86
:105D40000020A36509906B463B331B78002B03D0E2
:105D5000231C2D2243331A700B99281C009111AA81
:105D6000211C0A9B00F058F9013002D10120404269
:105D70004CE12268530504D4281C0A99321C23697B
:105D800067E0652F00D8E0E0A06CE16C574B564A05
:105D9000FCF720FA00282BD0281C0A99584A012326
:105DA0000B9EB0470130E1D00F9F1098874207DB70
:105DB0002168C90704D42768BF0700D50EE113E1A5
:105DC000281C0A990C9A0D9B0B9EB0470130CDD030
:105DD0000026109B013B9E42EDDA221C281C0A99EA
:105DE0001A3201230B9FB8470130BFD00136F0E7CC
:105DF0000F98002830DC281C0A99414A01230B9F88
:105E0000B8470130B2D00F98002805D11099002969
:105E100002D12268D207CED5281C0A990C9A0D9B74
